{
  "address": "0xe7f1725E7734CE288F8367e1Bb143E90bb3F0512",
  "abi": [
    {
      "inputs": [
        {
          "internalType": "address",
          "name": "_priceFeed",
          "type": "address"
        }
      ],
      "stateMutability": "nonpayable",
      "type": "constructor"
    },
    {
      "inputs": [],
      "name": "NotOwner",
      "type": "error"
    },
    {
      "stateMutability": "payable",
      "type": "fallback"
    },
    {
      "inputs": [],
      "name": "MIN_USD",
      "outputs": [
        {
          "internalType": "uint256",
          "name": "",
          "type": "uint256"
        }
      ],
      "stateMutability": "view",
      "type": "function"
    },
    {
      "inputs": [
        {
          "internalType": "address",
          "name": "",
          "type": "address"
        }
      ],
      "name": "addressToAmountFunded",
      "outputs": [
        {
          "internalType": "uint256",
          "name": "",
          "type": "uint256"
        }
      ],
      "stateMutability": "view",
      "type": "function"
    },
    {
      "inputs": [],
      "name": "fund",
      "outputs": [],
      "stateMutability": "payable",
      "type": "function"
    },
    {
      "inputs": [
        {
          "internalType": "uint256",
          "name": "",
          "type": "uint256"
        }
      ],
      "name": "funders",
      "outputs": [
        {
          "internalType": "address",
          "name": "",
          "type": "address"
        }
      ],
      "stateMutability": "view",
      "type": "function"
    },
    {
      "inputs": [],
      "name": "i_owner",
      "outputs": [
        {
          "internalType": "address",
          "name": "",
          "type": "address"
        }
      ],
      "stateMutability": "view",
      "type": "function"
    },
    {
      "inputs": [],
      "name": "priceFeed",
      "outputs": [
        {
          "internalType": "contract AggregatorV3Interface",
          "name": "",
          "type": "address"
        }
      ],
      "stateMutability": "view",
      "type": "function"
    },
    {
      "inputs": [],
      "name": "withdraw",
      "outputs": [],
      "stateMutability": "nonpayable",
      "type": "function"
    },
    {
      "stateMutability": "payable",
      "type": "receive"
    }
  ],
  "transactionHash": "0x72004505852de78d3c89a396738a84844290f92f8e72e4bfe5d4104b267ccbe5",
  "args": [
    "0x5FbDB2315678afecb367f032d93F642f64180aa3"
  ],
  "numDeployments": 1,
  "solcInputHash": "ed1dec9c779dc4efb93f1ac50e106ea3",
  "bytecode": "0x60a060405234801561001057600080fd5b50604051610f64380380610f64833981810160405281019061003291906100c5565b3373ffffffffffffffffffffffffffffffffffffffff1660808173ffffffffffffffffffffffffffffffffffffffff1660601b8152505080600260006101000a81548173ffffffffffffffffffffffffffffffffffffffff021916908373ffffffffffffffffffffffffffffffffffffffff16021790555050610140565b6000815190506100bf81610129565b92915050565b6000602082840312156100db576100da610124565b5b60006100e9848285016100b0565b91505092915050565b60006100fd82610104565b9050919050565b600073ffffffffffffffffffffffffffffffffffffffff82169050919050565b600080fd5b610132816100f2565b811461013d57600080fd5b50565b60805160601c610dff610165600039600081816102e101526105600152610dff6000f3fe6080604052600436106100745760003560e01c8063741bef1a1161004e578063741bef1a1461010c578063b60d428814610137578063dba6335f14610141578063dc0d3dff1461016c57610083565b8063213dbea21461008d5780633ccfd60b146100b85780633e47d6f3146100cf57610083565b36610083576100816101a9565b005b61008b6101a9565b005b34801561009957600080fd5b506100a26102d2565b6040516100af91906109a3565b60405180910390f35b3480156100c457600080fd5b506100cd6102df565b005b3480156100db57600080fd5b506100f660048036038101906100f191906107ad565b610520565b60405161010391906109a3565b60405180910390f35b34801561011857600080fd5b50610121610538565b60405161012e9190610948565b60405180910390f35b61013f6101a9565b005b34801561014d57600080fd5b5061015661055e565b604051610163919061092d565b60405180910390f35b34801561017857600080fd5b50610193600480360381019061018e91906107da565b610582565b6040516101a0919061092d565b60405180910390f35b6802b5e3af16b18800006101e8600260009054906101000a900473ffffffffffffffffffffffffffffffffffffffff16346105c190919063ffffffff16565b1015610229576040517f08c379a000000000000000000000000000000000000000000000000000000000815260040161022090610963565b60405180910390fd5b6000339080600181540180825580915050600190039060005260206000200160009091909190916101000a81548173ffffffffffffffffffffffffffffffffffffffff021916908373ffffffffffffffffffffffffffffffffffffffff16021790555034600160003373ffffffffffffffffffffffffffffffffffffffff1673ffffffffffffffffffffffffffffffffffffffff16815260200190815260200160002081905550565b6802b5e3af16b188000081565b7f000000000000000000000000000000000000000000000000000000000000000073ffffffffffffffffffffffffffffffffffffffff163373ffffffffffffffffffffffffffffffffffffffff161415610365576040517f30cd747100000000000000000000000000000000000000000000000000000000815260040160405180910390fd5b60005b60008054905081101561041057600080828154811061038a57610389610cb5565b5b9060005260206000200160009054906101000a900473ffffffffffffffffffffffffffffffffffffffff1690506000600160008373ffffffffffffffffffffffffffffffffffffffff1673ffffffffffffffffffffffffffffffffffffffff1681526020019081526020016000208190555050808061040890610c0e565b915050610368565b50600067ffffffffffffffff81111561042c5761042b610ce4565b5b60405190808252806020026020018201604052801561045a5781602001602082028036833780820191505090505b506000908051906020019061047092919061069d565b5060003073ffffffffffffffffffffffffffffffffffffffff164760405161049790610918565b60006040518083038185875af1925050503d80600081146104d4576040519150601f19603f3d011682016040523d82523d6000602084013e6104d9565b606091505b505090508061051d576040517f08c379a000000000000000000000000000000000000000000000000000000000815260040161051490610983565b60405180910390fd5b50565b60016020528060005260406000206000915090505481565b600260009054906101000a900473ffffffffffffffffffffffffffffffffffffffff1681565b7f000000000000000000000000000000000000000000000000000000000000000081565b6000818154811061059257600080fd5b906000526020600020016000915054906101000a900473ffffffffffffffffffffffffffffffffffffffff1681565b6000806105cd836105fd565b90506000670de0b6b3a764000085836105e69190610b22565b6105f091906109da565b9050809250505092915050565b6000808273ffffffffffffffffffffffffffffffffffffffff1663feaf968c6040518163ffffffff1660e01b815260040160a06040518083038186803b15801561064657600080fd5b505afa15801561065a573d6000803e3d6000fd5b505050506040513d601f19601f8201168201806040525081019061067e9190610807565b5050509150506402540be400816106959190610a0b565b915050919050565b828054828255906000526020600020908101928215610716579160200282015b828111156107155782518260006101000a81548173ffffffffffffffffffffffffffffffffffffffff021916908373ffffffffffffffffffffffffffffffffffffffff160217905550916020019190600101906106bd565b5b5090506107239190610727565b5090565b5b80821115610740576000816000905550600101610728565b5090565b60008135905061075381610d6d565b92915050565b60008151905061076881610d84565b92915050565b60008135905061077d81610d9b565b92915050565b60008151905061079281610d9b565b92915050565b6000815190506107a781610db2565b92915050565b6000602082840312156107c3576107c2610d13565b5b60006107d184828501610744565b91505092915050565b6000602082840312156107f0576107ef610d13565b5b60006107fe8482850161076e565b91505092915050565b600080600080600060a0868803121561082357610822610d13565b5b600061083188828901610798565b955050602061084288828901610759565b945050604061085388828901610783565b935050606061086488828901610783565b925050608061087588828901610798565b9150509295509295909350565b61088b81610b7c565b82525050565b61089a81610bd8565b82525050565b60006108ad6019836109c9565b91506108b882610d18565b602082019050919050565b60006108d06000836109be565b91506108db82610d41565b600082019050919050565b60006108f3600c836109c9565b91506108fe82610d44565b602082019050919050565b61091281610bb8565b82525050565b6000610923826108c3565b9150819050919050565b60006020820190506109426000830184610882565b92915050565b600060208201905061095d6000830184610891565b92915050565b6000602082019050818103600083015261097c816108a0565b9050919050565b6000602082019050818103600083015261099c816108e6565b9050919050565b60006020820190506109b86000830184610909565b92915050565b600081905092915050565b600082825260208201905092915050565b60006109e582610bb8565b91506109f083610bb8565b925082610a00576109ff610c86565b5b828204905092915050565b6000610a1682610b8e565b9150610a2183610b8e565b9250827f7fffffffffffffffffffffffffffffffffffffffffffffffffffffffffffffff0482116000841360008413161615610a6057610a5f610c57565b5b817f80000000000000000000000000000000000000000000000000000000000000000583126000841260008413161615610a9d57610a9c610c57565b5b827f80000000000000000000000000000000000000000000000000000000000000000582126000841360008412161615610ada57610ad9610c57565b5b827f7fffffffffffffffffffffffffffffffffffffffffffffffffffffffffffffff0582126000841260008412161615610b1757610b16610c57565b5b828202905092915050565b6000610b2d82610bb8565b9150610b3883610bb8565b9250817fffffffffffffffffffffffffffffffffffffffffffffffffffffffffffffffff0483118215151615610b7157610b70610c57565b5b828202905092915050565b6000610b8782610b98565b9050919050565b6000819050919050565b600073ffffffffffffffffffffffffffffffffffffffff82169050919050565b6000819050919050565b600069ffffffffffffffffffff82169050919050565b6000610be382610bea565b9050919050565b6000610bf582610bfc565b9050919050565b6000610c0782610b98565b9050919050565b6000610c1982610bb8565b91507fffffffffffffffffffffffffffffffffffffffffffffffffffffffffffffffff821415610c4c57610c4b610c57565b5b600182019050919050565b7f4e487b7100000000000000000000000000000000000000000000000000000000600052601160045260246000fd5b7f4e487b7100000000000000000000000000000000000000000000000000000000600052601260045260246000fd5b7f4e487b7100000000000000000000000000000000000000000000000000000000600052603260045260246000fd5b7f4e487b7100000000000000000000000000000000000000000000000000000000600052604160045260246000fd5b600080fd5b7f5072696365206973206c6f7765722c2073656e64206d6f726500000000000000600082015250565b50565b7f43616c6c2066616c696564200000000000000000000000000000000000000000600082015250565b610d7681610b7c565b8114610d8157600080fd5b50565b610d8d81610b8e565b8114610d9857600080fd5b50565b610da481610bb8565b8114610daf57600080fd5b50565b610dbb81610bc2565b8114610dc657600080fd5b5056fea26469706673582212201fe015943fd1e7e13b6368426ea1d13beb61cc1f516f312b759b0b38fc640c0364736f6c63430008070033",
  "devdoc": {
    "kind": "dev",
    "methods": {},
    "version": 1
  },
  "userdoc": {
    "kind": "user",
    "methods": {},
    "version": 1
  },
  "storageLayout": {
    "storage": [
      {
        "astId": 64,
        "contract": "contracts/FundMe.sol:FundMe",
        "label": "funders",
        "offset": 0,
        "slot": "0",
        "type": "t_array(t_address)dyn_storage"
      },
      {
        "astId": 68,
        "contract": "contracts/FundMe.sol:FundMe",
        "label": "addressToAmountFunded",
        "offset": 0,
        "slot": "1",
        "type": "t_mapping(t_address,t_uint256)"
      },
      {
        "astId": 71,
        "contract": "contracts/FundMe.sol:FundMe",
        "label": "priceFeed",
        "offset": 0,
        "slot": "2",
        "type": "t_contract(AggregatorV3Interface)45"
      }
    ],
    "types": {
      "t_address": {
        "encoding": "inplace",
        "label": "address",
        "numberOfBytes": "20"
      },
      "t_array(t_address)dyn_storage": {
        "base": "t_address",
        "encoding": "dynamic_array",
        "label": "address[]",
        "numberOfBytes": "32"
      },
      "t_contract(AggregatorV3Interface)45": {
        "encoding": "inplace",
        "label": "contract AggregatorV3Interface",
        "numberOfBytes": "20"
      },
      "t_mapping(t_address,t_uint256)": {
        "encoding": "mapping",
        "key": "t_address",
        "label": "mapping(address => uint256)",
        "numberOfBytes": "32",
        "value": "t_uint256"
      },
      "t_uint256": {
        "encoding": "inplace",
        "label": "uint256",
        "numberOfBytes": "32"
      }
    }
  }
}